:03000000020ADF12
:0C0ADF00787FE4F6D8FD75812B020B2611
:0C0D740001120001230101100201110016
:1009A400758F01758901758CDB758A46D28CD2A945
:1009B400D2AF75F60175F320E4F5F2F524F525744C
:1009C400132525F8E4F60525E525700205246410B1
:1009D400452470EB120B6BEFB51205120D0B80035F
:1009E400120CA1120C69D28C120B6BEF6512704AB7
:1009F400F52675270F120000C3E5279FEE6480F8E3
:100A0400E526648098407675280075290712000051
:100A1400C3E5299FEE6480F8E5286480984011AF0F
:100A240027AD29120800E529152970E1152880DD74
:100A3400E527152770BF152680BB1200008E268F70
:100A440027C3E5279410E52664809480502F120074
:100A5400008E288F29C3E5299408E52864809480B2
:100A64005011AF27AD291208000529E52970E605C4
:100A74002880E20527E52770C8052680C4120000F7
:100A8400A295E4336F7001EE60F3120000A294E4C7
:100A9400336F7001EE60030209EC1200008E248FA4
:100AA40025C3E5259410E5246480948050117413C3
:100AB4002525F8E4F60525E52570E6052480E212EF
:100AC4000B6BEFB51205120D0B800A120B6BEFB511
:0B0AD4002303120CA1120C690209ECB4
:100800008F2A8D2B120B6BEF651070030209A31258
:100810000B6BEF651260030208EE120D5AEF6031A8
:10082000E52A2401FFE433FEC3EF9410EE648094C4
:1008300080501EE52A04FFAD2B120D5EEF7012E50D
:100840002A04FFAD2B120BC7EF6006E52A0402094C
:1008500014120D5AEF603AE52A2401FFE433FEC377
:10086000EF9410EE648094805027E52B14FDC39420
:1008700000401EE52A04FF120D5EEF7014E52A0405
:10088000FFE52B14FD120BC7EF6006E52A040209F1
:100890004A120D5AEF70030209A3E52A2401FFE46E
:1008A00033FEC3EF9410EE6480948040030209A3EA
:1008B000E52B2401FFE433FED3EF9407EE6480942C
:1008C0008040030209A3E52A04FFE52B04FD120D75
:1008D0005EEF60030209A3E52A04FFE52B04FD1285
:1008E0000BC7EF70030209A3E52A04020990120D59
:1008F0005AEF6028E52A14FFC39400401FAD2B1265
:100900000D5EEF7017E52A14FFAD2B120BC7EF60D9
:100910000BE52A14FF7B01AD2B020997120D5AEF4C
:100920006031E52A14FFC394004028E52B14FD94A0
:10093000004020120D5EEF701AE52A14FFE52B141B
:10094000FD120BC7EF600CE52A14FFE52B14FD7BAD
:10095000018044120D5AEF604AE52A14FFC3940047
:100960004041E52B2401FDE433FCD3ED9407EC6416
:10097000809480502EE52B04FD120D5EEF7024E56F
:100980002A14FFE52B04FD120BC7EF6016E52A14AD
:10099000FFE52B04FD7B01120C35E4FBAD2BAF2AE8
:0409A000120C3522DE
:040D5A00AD2BAF2AE4
:100D5E0074132FF8E6FFAE057401A806088002C3CF
:050D6E0033D8FC5FFF1B
:010D7300225D
:100C1F007F05120C357F06120C357F07120C357FBE
:060C2F0008120C357F09DC
:100C3500EB601674132FF8C000E6FF7401A80508D1
:100C45008002C333D8FC4F801774132FF8C000E619
:100C5500FFAE057401A806088002C333D8FCF45F13
:040C6500D000F622A3
:100B6B0053F3F843F32043F3088005EF6410600759
:100B7B00E5F35410FF80F4AFF57E00EF7802C3333A
:100B8B00CE33CED8F9ADF42DFFE43EFE53F3EFE4B4
:100B9B00FDFC0DBD00010CED64214C70F5D3EF9401
:100BAB0017EE648094824003AF1222C3EF947CEE65
:0B0BBB00648094815003AF2322AF1030
:010BC600220C
:100C6900E4FB7D07120C1F7F0A120C35E4FD120C00
:100C79001F7F0A120C357D06120C247D01120C24EB
:100C89007D057F07120C357F08120C357D027F0721
:080C9900120C357F08020C3536
:100BC700EF64056017EF64066012EF6407600DEFCE
:100BD70064086008EF64096003BF0A09ED6003BD9C
:100BE70007037F0022EF6406600DEF64076008EFDC
:100BF70064086003BF090BED64066003BD01037F52
:100C07000022EF64076003BF080BED64056003BDB6
:080C170002037F00227F01228D
:100D0B00E4F52AF52B900000AF82AD2B7B01120C82
:100D1B0035A3E5826407458370EE052BE52B700246
:0D0D2B00052AC39408E52A6480948040D80E
:010D38002298
:100CA100E4F52AF52B90000FAF82AD2B7B01120CDE
:100CB10035E582158270021583E5826408458370EB
:100CC100E7052BE52B7002052AC39408E52A648009
:040CD100948040D1FA
:010CD50022FC
:03000B00020CD60E
:0D0CD600C0E0C0F0C083C082C0D075D0085F
:100CE300758CDB758A4674132511F8E6F5B0AF11E0
:0D0CF300120D390511E511B4100375110043
:0B0D0000D0D0D082D083D0F0D0E03201
:100D3900C283C282EF20E304D2838002D282EF13FE
:100D490013543F139287EFC313139286EF139285BF
:010D59002277
:050D81007E007F00224E
:100AEB000209A4E493A3F8E493A34003F68001F274
:100AFB0008DFF48029E493A3F85407240CC8C3330C
:100B0B00C4540F4420C8834004F456800146F6DFDA
:100B1B00E4800B0102040810204080900D74E47EE9
:100B2B00019360BCA3FF543F30E509541FFEE493CF
:100B3B00A360010ECF54C025E060A840B8E493A396
:100B4B00FAE493A3F8E493A3C8C582C8CAC583CAC1
:100B5B00F0A3C8C582C8CAC583CADFE9DEE780BE79
:010D80000072
:00000001FF
