:030000000208DC17
:0C08DC00787FE4F6D8FD75810B0208005F
:1008B600D291D292D293D294EE701AEF24FE600DAA
:1008C60014600D14600D2403700BC29122C2922293
:0608D600C29322C294222D
:1008000075F60175F320E4F5F2C2AFFAFBF50BF5CE
:100810000AF509F508FDFC53F3F843F32043F30808
:100820008005EF64106007E5F35410FF80F4AFF526
:100830007A00AB07EB7E007802C333CE33CED8F913
:10084000AA06AFF42FFBE43AFAC3EB9471EA648092
:10085000948150047F05803EC3EB949EEA648094AB
:100860008150047F01802FC3EB94CBEA6480948194
:1008700050047F028020C3EB94F7EA648094815097
:10088000047F038011C3EB9424EA648094825004B3
:100890007F0480027F057E001208B653F3EFE4FC6C
:1008A000FDC3ED9421EC6480948040030208170D91
:0608B000BD00010C80EB0D
:00000001FF
