:030000000208BD36
:0C08BD00787FE4F6D8FD75810A0208007F
:100800007903750801750901E4F50AFAFBF509F5A4
:1008100008208107208004E4F9801C2081073080B3
:100820000479018012308107208004790280083029
:1008300081053080027903B901110BBB00010AC3A5
:10084000EB94FFEA94014003E4FAFBB90222E508C5
:1008500070130BBB00010AC3EB94FFEA9400401035
:10086000750801800BEB1B70011AEB4A7002F5084A
:10087000B9031DE5097011FA7BFF050AE50AC39467
:10088000FF400D7509018008E4FAFBD50A02F5095D
:10089000E97002FAFBB90109EAC313EB13F5A08072
:1008A000028BA0C2C0D2C0E4FCFDC3ED9449EC941D
:0D08B0000040030208110DBD00010C80ED99
:00000001FF
